:020000040800F2
:10000000000002209D4800081D0C00081F0C00087D
:10001000210C0008230C0008250C0008000000003B
:10002000000000000000000000000000D1450008B2
:10003000270C00080000000071460008290C000889
:10004000ED480008ED480008ED480008ED480008BC
:10005000ED480008ED480008ED480008ED480008AC
:10006000550B0008690B00087D0B0008ED480008DF
:10007000ED480008ED480008ED480008ED4800088C
:10008000ED480008ED480008ED480008ED4800087C
:10009000ED480008ED480008ED480008ED4800086C
:1000A000ED480008ED480008ED480008ED4800085C
:1000B000ED480008ED480008ED480008ED4800084C
:1000C000ED480008ED480008ED480008ED4800083C
:1000D000ED480008410C0008ED480008ED48000814
:1000E000ED480008ED480008ED480008ED4800081C
:1000F000ED480008ED480008ED480008ED4800080C
:10010000ED480008ED480008ED480008ED480008FB
:10011000ED480008ED480008ED480008ED480008EB
:10012000ED480008ED480008610C0008ED480008A3
:10013000ED480008ED480008ED480008ED480008CB
:10014000ED480008ED480008ED480008ED480008BB
:10015000ED480008ED480008510C0008ED48000883
:10016000ED480008ED480008ED480008ED4800089B
:10017000ED480008ED480008ED48000800000000C8
:08018000ED480008ED480008FD
:1001900010B5054C237833B9044B13B10448AFF3C1
:1001A00000800123237010BDBC000020000000006F
:1001B0007859000808B5034B1BB103490348AFF356
:1001C000008008BD00000000C00000207859000831
:1001D00001F0FF01102A2BDB10F0070F08D010F8F8
:1001E000013B013A8B422DD010F0070F42B3F6D1FC
:1001F000F0B441EA012141EA014122F007047FF015
:1002000000070023F0E80256083C85EA010586EA6B
:10021000010685FA47F5A3FA87F586FA47F6A5FAA7
:1002200087F68EB9EED1F0BC01F0FF0102F00702B3
:1002300032B110F8013B013A83EA010313B1F8D15E
:100240000020704701387047002D06BF354603383F
:10025000073815F0010F07D1013015F4807F02BF78
:10026000013015F4C03F0130F0BC0138704700BFC9
:1002700053B94AB9002908BF00281CBF4FF0FF310D
:100280004FF0FF3000F074B9ADF1080C6DE904CE09
:1002900000F006F8DDF804E0DDE9022304B0704761
:1002A0002DE9F047089D04468E46002B4DD18A4229
:1002B000944669D9B2FA82F252B101FA02F3C2F15C
:1002C000200120FA01F10CFA02FC41EA030E9440ED
:1002D0004FEA1C48210CBEFBF8F61FFA8CF708FB0E
:1002E00016E341EA034306FB07F199420AD91CEBE6
:1002F000030306F1FF3080F01F81994240F21C8118
:10030000023E63445B1AA4B2B3FBF8F008FB10335F
:1003100044EA034400FB07F7A7420AD91CEB040494
:1003200000F1FF3380F00A81A74240F20781644464
:10033000023840EA0640E41B00261DB1D4400023E9
:10034000C5E900433146BDE8F0878B4209D9002D4D
:1003500000F0EF800026C5E9000130463146BDE8D7
:10036000F087B3FA83F6002E4AD18B4202D3824241
:1003700000F2F980841A61EB030301209E46002DF0
:10038000E0D0C5E9004EDDE702B9FFDEB2FA82F245
:10039000002A40F09280A1EB0C014FEA1C471FFAA3
:1003A0008CFE0126200CB1FBF7F307FB131140EA8A
:1003B00001410EFB03F0884208D91CEB010103F157
:1003C000FF3802D2884200F2CB804346091AA4B219
:1003D000B1FBF7F007FB101144EA01440EFB00FEED
:1003E000A64508D91CEB040400F1FF3102D2A64552
:1003F00000F2BB800846A4EB0E0440EA03409CE7F1
:10040000C6F12007B34022FA07FC4CEA030C20FA9D
:1004100007F401FA06F31C43F9404FEA1C4900FABD
:1004200006F3B1FBF9F8200C1FFA8CFE09FB18113A
:1004300040EA014108FB0EF0884202FA06F20BD9AD
:100440001CEB010108F1FF3A80F08880884240F2FD
:100450008580A8F102086144091AA4B2B1FBF9F041
:1004600009FB101144EA014100FB0EFE8E4508D93C
:100470001CEB010100F1FF346CD28E456AD90238C1
:10048000614440EA0840A0FB0294A1EB0E01A142A6
:10049000C846A64656D353D05DB1B3EB080261EB14
:1004A0000E0101FA07F722FA06F3F1401F43C5E9EE
:1004B000007100263146BDE8F087C2F12003D84024
:1004C0000CFA02FC21FA03F3914001434FEA1C4766
:1004D0001FFA8CFEB3FBF7F007FB10360B0C43EA58
:1004E000064300FB0EF69E4204FA02F408D91CEB08
:1004F000030300F1FF382FD29E422DD90238634406
:100500009B1B89B2B3FBF7F607FB163341EA0341A5
:1005100006FB0EF38B4208D91CEB010106F1FF38F4
:1005200016D28B4214D9023E6144C91A46EA0046EB
:1005300038E72E46284605E70646E3E61846F8E67D
:100540004B45A9D2B9EB020864EB0C0E0138A3E7C6
:100550004646EAE7204694E74046D1E7D0467BE7A7
:10056000023B614432E7304609E76444023842E71F
:10057000704700BF72B6FEE700B595B0302200218B
:1005800008A804F0EDF90023039304930593069360
:1005900007930193214A116C41F080511164126C50
:1005A00002F080520192019A02931D4B1A6842F4A4
:1005B00080421A601B6803F480430293029B01236C
:1005C00008934FF48033099302230E934FF4800273
:1005D0000F92082210924FF4A872119212930723DF
:1005E000139308A800F052FC98B90F230393022339
:1005F0000493002305934FF4A05306934FF48053C4
:100600000793052103A800F0A7FE20B915B05DF8F7
:1006100004FBFFF7AFFFFFF7ADFF00BF003802405C
:100620000070004008B501F073FBFFF7A5FF00F074
:10063000D7F800F075FA00F033FA00F021F903F072
:100640000DFE00F0B5F803F01BFEFEE710B582B01A
:1006500003F0D0FF134B01930524009400234FF4C3
:1006600000721149114802F09AFF114B0193009456
:10067000002380220F49104802F091FF0F4B019395
:100680000094002380220E490E4802F088FF00F0FB
:1006900029FA0D4B186802F0B7FF03F0CDFF02B046
:1006A00010BD00BFDC00002090590008CD060008F6
:1006B000E000002098590008D9060008E400002056
:1006C000A05900083D070008D800002008B54FF4E5
:1006D000FA7003F059F9FAE770B5C0B0134804F0A6
:1006E000CDF9134DEC682B68284698476E681423A3
:1006F000102210492846B04706E0A18E4B1E1DF877
:1007000003200D4804F034F9094883680A22694639
:1007100098470128F1D0A38E002BF5D00021A186A7
:100720004FF48072684604F01BF9EDE7A859000801
:1007300000000020B8590008C859000800B583B06F
:100740000DE0154804F09AF912E0144804F096F907
:1007500017E0134804F092F9962003F015F964228B
:100760000DF107010F4B186802F095FB0028E8D146
:1007700064220DF106010C4B186802F08CFB002876
:10078000E3D164220DF10501084B186802F083FBE8
:100790000028DED1E0E700BFE0590008E859000872
:1007A000F0590008F4010020F8010020FC010020AD
:1007B00000B583B0074B01930123009300238022EF
:1007C0000549064802F0EBFE02F07AFF03B05DF83F
:1007D00004FB00BFD8000020F85900084D060008AF
:1007E00008B500F0B1FA00F007FB08BD10B50B4BDF
:1007F0001860C468002201214FF4807002F0A3F950
:10080000206103220021012002F09DF9E0602146D1
:1008100051F8140B012201F074FF10BDE800002014
:1008200038B51D46C468636853B1206801F08AFC7E
:100830002946E06802F0DEFB012800D0002038BD28
:10084000206801F062FCF3E710B5C468A38E194478
:10085000206902F020FB012801D0002010BDA38EEA
:100860000133A386FAE7000010B514464FF6FF7374
:1008700092B2024801F0E3FB204610BDAC0100201B
:1008800008B50A480A4B03604FF4E1334360002384
:100890008360C36003610C2242618361C36101F024
:1008A0009EFB00B908BDFFF765FEFBE7AC01002029
:1008B0000010014030B589B00023039304930593E1
:1008C00006930793026803F1804303F588339A4245
:1008D00001D009B030BD04460025019503F59433DD
:1008E0005A6C42F010025A645A6C02F010020192E3
:1008F000019A02951A6B42F002021A631B6B03F015
:1009000002030293029BC023039302230493032355
:1009100006930723079303A9224800F0F3FD22481A
:10092000224B03604FF00063436040238360C56047
:100930004FF48063036145618561C561056245626D
:1009400000F06EFF40BB184BA3639C631848194B23
:1009500003604FF00063436000238360C3604FF483
:100960008062026143618361C3610362436200F09C
:1009700057FFA0B90E4BE3639C630022052125209D
:1009800001F046F9252001F07BF90B4B1A68D3687A
:1009900043F02003D3609CE7FFF7ECFDD3E7FFF7BC
:1009A000E9FDE7E7000402404C010020B864024082
:1009B000EC00002040640240AC01002008B5064B6A
:1009C000834200D008BD054B1B68DB680021D86856
:1009D00002F008FAF6E700BFAC010020E8000020B2
:1009E0002DE9F0410746B0F82C80C38D9BB2A8EBEF
:1009F00003080268154B9A4203D0B368BBB10025C7
:100A000011E0134B1B68DE68F7E706F114040023BE
:100A10001A462146306902F07EF9BA8D21460D480A
:100A200001F0D4FE01354545EFDBBDE8F08106F16C
:100A3000140400231A462146306902F06CF90122A1
:100A40002146044801F05DFEEFE700BF00100140C1
:100A5000E8000020AC0100202DE9F04180460F465F
:100A60000D4B984201D0002512E00C4B1B68DE684C
:100A7000F9E706F1140400231A462146306902F012
:100A80004AF9B8F82C202146034801F09FFE0135B1
:100A9000BD42EEDBBDE8F081AC010020E8000020A3
:100AA00010B582B0002401940D4B1A6B42F4800201
:100AB0001A631B6B03F480030193019B22460521FB
:100AC000462001F0A5F8462001F0DAF8224605217B
:100AD0003A2001F09DF83A2001F0D2F802B010BDA2
:100AE0000038024008B5002201210A2002F02BF84C
:100AF000084B1860002201210A2002F024F8064B5E
:100B00001860002201210A2002F01DF8034B186032
:100B100008BD00BFF4010020F8010020FC01002006
:100B200008B500220621082001F072F8082001F023
:100B3000A7F801220621092001F06AF8092001F036
:100B40009FF8022206210A2001F062F80A2001F033
:100B500097F808BD08B5042000F0D4FD014B04222D
:100B60005A6108BD003C014008B5082000F0CAFDEC
:100B7000014B08225A6108BD003C014008B5102015
:100B800000F0C0FD014B10225A6108BD003C01403D
:100B900010B5044601F0E2F81B4B1B68C31A142B76
:100BA00007D9194B1860082C12D0102C1ED0042C19
:100BB00000D010BD0421154800F096FD0028F8D1A2
:100BC00000231A4601211248006802F0A4F8F0E759
:100BD00008210E4800F088FD0028EAD100231A46BB
:100BE00001210C48006802F096F8E2E7102107485E
:100BF00000F07AFD0028DCD100231A4601210648C6
:100C0000006802F088F8D4E70002002000100240DB
:100C1000F4010020F8010020FC010020FEE7FEE7BF
:100C2000FEE7FEE7FEE7704708B501F08BF802F03B
:100C3000E9FF012800D108BD03F04CFDFBE70000EF
:100C400008B5024801F0A2FB08BD00BFAC010020BE
:100C500008B5024800F0DCFE08BD00BF4C010020D2
:100C600008B5024800F0D4FE08BD00BFEC0000202B
:100C700000B583B0002200920D4B596C41F48041C5
:100C80005964596C01F48041009100990192196CEA
:100C900041F0805119641B6C03F080530193019B58
:100CA0000F216FF0010000F0B3FF03B05DF804FB0B
:100CB0000038024010B503460C4A0D490D48006843
:100CC00040B10C4800680344521A934206D8094ABE
:100CD000136010BD0748084C0460F2E703F008FEFB
:100CE0000C2303604FF0FF30F3E700BF0000022049
:100CF0000004000004020020704B002070B50C4678
:100D00001646002506E0AFF30080214601F8010BEE
:100D100001350C46B542F6DB304670BD4FF0FF3072
:100D200070474FF400534B6000207047012070471C
:100D300000207047034AD2F8883043F47003C2F8A9
:100D40008830704700ED00E030B58BB0002405948A
:100D500006940794089409940094254B1A6B42F06A
:100D600004021A631A6B02F004020092009A0194C2
:100D70001A6B42F080021A631A6B02F08002019231
:100D8000019A02941A6B42F001021A631A6B02F084
:100D900001020292029A03941A6B42F002021A6351
:100DA0001A6B02F002020392039A04941A6B42F047
:100DB00010021A631B6B03F010030493049B0D4D88
:100DC00001221146284600F096FC01220221284605
:100DD00000F091FC0323059301230693079402235B
:100DE000089305A9284600F08DFB0BB030BD00BF6D
:100DF0000038024000100240F0B589B00022009295
:100E0000204B196B41F010011963196B01F01001AF
:100E1000009100990192196B41F010011963196B4F
:100E200001F010010191019902921A6B42F0100237
:100E30001A631B6B03F010030293029B04230393BA
:100E40004FF40416049601250595032306930E4CD2
:100E500003A9204600F056FB08230393049605954A
:100E60000227069703A9204600F04CFB10230393AA
:100E700004960595069703A9204600F043FB09B0A8
:100E8000F0BD00BF0038024000100240002800F012
:100E9000E08170B582B00446036813F0010F3BD0C7
:100EA0009F4B9B6803F00C03042B2CD09C4B9B683E
:100EB00003F00C03082B21D06368B3F5803F4FD0BB
:100EC000B3F5A02F52D0964B1A6822F480321A60E4
:100ED0001A6822F480221A606368002B50D000F058
:100EE0003DFF05468E4B1B6813F4003F14D100F004
:100EF00035FF401B6428F5D90320B1E1884B5B68BE
:100F000013F4800FD8D0864B1B6813F4003F03D036
:100F10006368002B00F09F81236813F0020F54D008
:100F20007F4B9B6813F00C0F3ED07D4B9B6803F00A
:100F30000C03082B33D0E368002B68D0794B0122D7
:100F40001A6000F00BFF0546754B1B6813F0020F8B
:100F500054D100F003FF401B0228F5D903207FE1A4
:100F60006F4A136843F480331360B5E76C4B1A681B
:100F700042F480221A601A6842F480321A60ABE7A9
:100F800000F0ECFE0546664B1B6813F4003FC3D02F
:100F900000F0E4FE401B6428F5D9032060E1604BBB
:100FA0005B6813F4800FC6D15D4B1B6813F0020F12
:100FB00003D0E368012B40F05081594A136823F0B5
:100FC000F803216943EAC1031360236813F0080F93
:100FD00042D063696BB3534B0122C3F8802E00F0FB
:100FE000BDFE05464E4B5B6F13F0020F34D100F08F
:100FF000B5FE401B0228F5D9032031E1484A1368A9
:1010000023F0F803216943EAC1031360DDE7454B90
:1010100000221A6000F0A2FE0546414B1B6813F047
:10102000020FD2D000F09AFE401B0228F5D903200F
:1010300016E13C4B0022C3F8802E00F08FFE0546DF
:10104000374B5B6F13F0020F06D000F087FE401B9A
:101050000228F5D9032003E1236813F0040F77D0A9
:101060002F4B1B6C13F0805F33D1002301932C4B6B
:101070001A6C42F080521A641B6C03F08053019387
:10108000019B0125284B1B6813F4807F23D0A368A4
:10109000012B34D0052B38D0214B1A6F22F00102DE
:1010A0001A671A6F22F004021A67A368002B3DD05A
:1010B00000F054FE06461A4B1B6F13F0020F46D188
:1010C00000F04CFE801B41F288339842F3D9032094
:1010D000C6E00025D6E7144A136843F48073136012
:1010E00000F03CFE0646104B1B6813F4807FCED107
:1010F00000F034FE801B0228F5D90320B0E0084A36
:10110000136F43F001031367CFE7054B1A6F42F0EB
:1011100004021A671A6F42F001021A67C5E700BF9E
:1011200000380240000047420070004000F016FE08
:101130000646524B1B6F13F0020F08D000F00EFE54
:10114000801B41F288339842F3D9032088E0EDB93F
:10115000A369002B00F08380484A926802F00C02D9
:10116000082A51D0022B17D0454B00221A6600F0F6
:10117000F5FD0446414B1B6813F0007F42D000F0A0
:10118000EDFD001B0228F5D9032069E03B4A136CF2
:1011900023F080531364DBE7394B00221A6600F01A
:1011A000DDFD0546354B1B6813F0007F06D000F0CF
:1011B000D5FD401B0228F5D9032051E0E369226ADE
:1011C0001343626A43EA8213A26A5208013A43EA6D
:1011D0000243E26A43EA0263284A5360284B012231
:1011E0001A6600F0BBFD0446244B1B6813F0007F19
:1011F00006D100F0B3FD001B0228F5D903202FE033
:1012000000202DE000202BE0012B2BD01B4B5B6836
:1012100003F48001E269914226D103F03F02216A82
:101220008A4223D1616A47F6C0721A40B2EB811F2D
:101230001ED103F44031A26A5208013AB1EB024FC9
:1012400018D103F07063E26AB3EB026F14D100208F
:1012500006E001207047012002E0012000E00020AC
:1012600002B070BD0120FBE70120F9E70120F7E79C
:101270000120F5E70120F3E70120F1E70038024003
:101280000000474208B5314B9B6803F00C03042B68
:1012900057D0082B57D12D4B5A6802F03F025B689C
:1012A00013F4800F2AD0294B5968C1F3881C4FEAE8
:1012B0004C11B1EB0C006EEB0E0E4FEA8E1343EAAD
:1012C00090638101091A63EB0E03DB0043EA51735B
:1012D000C90011EB0C0C43F10003590200234FEA43
:1012E0004C2041EADC51FEF7C3FF184B5B68C3F3A7
:1012F000014301335B00B0FBF3F025E0134B596869
:10130000C1F3881C4FEA4C11B1EB0C006EEB0E0ED2
:101310004FEA8E1343EA90638101091A63EB0E03CF
:10132000DB0043EA5173C90011EB0C0C43F10003DD
:10133000990200234FEA8C2041EA9C51FEF798FF66
:10134000D3E7034800E0034808BD00BF003802406F
:1013500000127A000024F400002800F09B8070B591
:101360000D4604464F4B1B6803F007038B4208D21F
:10137000CBB24C4A1370136803F007038B4240F062
:101380008B80236813F0020F17D013F0040F04D0E2
:10139000454A936843F4E0539360236813F0080FC1
:1013A00004D0414A936843F4604393603E4A936893
:1013B00023F0F003A1680B439360236813F0010F3F
:1013C00032D06368012B21D09A1E012A25D9364AD2
:1013D000126812F0020F61D033498A6822F00302CA
:1013E00013438B6000F0BAFC06462F4B9B6803F05A
:1013F0000C036268B3EB820F16D000F0AFFC801BC9
:1014000041F288339842F0D9032042E0264A12681C
:1014100012F4003FE0D101203BE0234A126812F0B1
:10142000007FD9D1012034E01E4B1B6803F0070375
:10143000AB4207D9EAB21B4B1A701B6803F00703D3
:10144000AB422DD1236813F0040F06D0164A9368DF
:1014500023F4E053E1680B439360236813F0080F13
:1014600007D0114A936823F46043216943EAC1031A
:101470009360FFF707FF0C4B9B68C3F303130B4A02
:10148000D35CD8400A4B18600A4B186800F01AFC6D
:10149000002070BD012070470120FAE70120F8E725
:1014A0000120F6E7003C024000380240045A0008E0
:1014B0004800002050000020014B1868704700BF12
:1014C0004800002008B5FFF7F7FF044B9B68C3F303
:1014D0008223034AD35CD84008BD00BF00380240D5
:1014E000145A000808B5FFF7E7FF044B9B68C3F3E5
:1014F0004233034AD35CD84008BD00BF00380240E5
:10150000145A000800230F2B00F2E48070B582B05B
:1015100060E085685E000324B44025EA0405CC68D9
:10152000B4402C438460456825EA02054C68C4F346
:1015300000129A402A4342605AE0DC08083450F80E
:10154000246003F0070295000F22AA4026EA020E4B
:101550000A69AA4042EA0E0240F824205CE0072211
:1015600000E0002202FA0EF22A4302345A4D45F8F6
:1015700024205A4A94686FEA0C0224EA0C054E684B
:1015800016F4801F01D04CEA0405544CA560E468B1
:1015900002EA04054E6816F4001F01D04CEA040567
:1015A0004E4CE560646802EA04054E6816F4003F9C
:1015B00001D04CEA0405494C6560246822404D681E
:1015C00015F4803F01D04CEA0402444C2260013300
:1015D0000F2B7DD801229A400C6804EA020C32EAF3
:1015E0000404F4D14C6804F00304013C012C90D9AC
:1015F0004A6802F00302032A09D0C4685D0003228E
:10160000AA4024EA02048A68AA402243C2604A68C7
:1016100002F00302022A90D004684FEA430E03222C
:1016200002FA0EF224EA02044A6802F0030202FA05
:101630000EF2224302604A6812F4403FC7D00022F3
:101640000192274A546C44F480445464526C02F46E
:1016500080420192019A9C08A51C1F4A52F825500D
:1016600003F003024FEA820E0F2202FA0EF225EA7D
:1016700002051C4A90423FF474AF02F5806290422A
:101680001AD002F58062904218D002F58062904232
:1016900016D002F58062904214D002F5806290422A
:1016A00012D002F58062904210D002F58062904222
:1016B0003FF455AF082255E7012253E7022251E7D4
:1016C00003224FE704224DE705224BE7062249E7B4
:1016D00002B070BD704700BF00380140003C0140BF
:1016E00000380240000002400369194201D0012085
:1016F0007047002070470AB1816170470904816119
:101700007047000008B5054B5B69034200D108BD76
:10171000024B5861FFF73CFAF9E700BF003C01407B
:1017200030B405682C6824F480242C60046863605D
:101730008368402B05D0036899600368DA6030BC89
:10174000704703689A600368D960F8E710B40368CB
:10175000D9B210390C4AA2FB014212090B4CA25C0F
:10176000C2655F2909D923F47F7323F0030304338F
:101770008365806D5DF8044B704723F47F7323F01D
:1017800003038365F5E700BFABAAAAAA1C5A0008A9
:10179000836A826992B9012B0AD0022B02D00BB165
:1017A00000207047C36A13F0807F28D10020704763
:1017B000C36AB3F1C07F24D000207047B2F5005F48
:1017C00009D0022B25D9032B25D1C36A13F0807FC2
:1017D00023D100207047032B03D8DFE803F0140463
:1017E000140A00207047C36A13F0807F0DD10020D7
:1017F0007047C36AB3F1C07F09D000207047012051
:101800007047012070470120704701207047012078
:10181000704701207047002070470120704700008A
:1018200070B5044600F09AFA002C5BD005460223FE
:1018300084F83530002384F834302268136823F0AC
:101840000103136023681A6812F0010F0AD000F038
:1018500085FA431B052BF5D920236365032084F803
:10186000350070BD1A68204810406168A2680A43BC
:10187000E1680A4321690A4361690A43A1690A438D
:10188000E1690A43216A0A430243616A04291ED0BE
:101890001A602668756925F00705636A1D43042BE5
:1018A00007D1A36A1D43E36A1BB12046FFF770FF0F
:1018B00090B975612046FFF749FFE26D3F239340E1
:1018C000836000206065012384F83530C9E7E16A50
:1018D000206B01430A43DBE740236365012084F862
:1018E0003500BEE70120BCE73F8010F038B5044664
:1018F000856D90F8340001282BD0012084F8340045
:1019000094F83500C0B2012804D0002384F83430A4
:10191000022038BD022084F8350000206065204692
:10192000FFF7FEFEE26D3F239340AB602268136831
:1019300043F016031360236C23B12268136843F04D
:10194000080313602268136843F00103136000204A
:10195000DFE70220DDE770B50446866D00F0FEF992
:1019600094F83530DBB2022B06D080236365002368
:1019700084F83430012070BD05462268136823F0D6
:10198000160313602268536923F080035361236CAC
:10199000E3B12268136823F0080313602268136818
:1019A00023F00103136023681B6813F0010F11D0AB
:1019B00000F0D4F9431B052BF5D9202363650320E0
:1019C00084F83500002384F83430D4E7A36C002B6E
:1019D000DFD1E3E7E26D3F239340B360012384F856
:1019E0003530002084F83400C5E790F83530DBB29C
:1019F000022B03D08023436501207047052380F824
:101A000035300268136823F001031360002070472B
:101A1000F0B583B0044600230193724B1D68724BEE
:101A2000A3FB0535AD0A876D3E68C26D0823934060
:101A3000334210D003681A6812F0040F0BD01A68F2
:101A400022F004021A60C26D08239340BB60436D0C
:101A500043F001034365E26D01239340334209D013
:101A60002268526912F0800F04D0BB60636D43F0AE
:101A700002036365E26D04239340334209D0226878
:101A8000126812F0020F04D0BB60636D43F00403D0
:101A90006365E26D10239340334224D022681268BC
:101AA00012F0080F1FD0BB6023681A6812F4802F51
:101AB0000DD01B6813F4002F04D1236C9BB120467A
:101AC000984710E0A36C73B1204698470BE01A6862
:101AD00012F4807F03D11A6822F008021A60236C86
:101AE0000BB120469847E26D20239340334255D0F6
:101AF0002268126812F0100F50D0BB6094F8353095
:101B0000DBB2052B0ED023681A6812F4802F33D075
:101B10001B6813F4002F2AD1636C002B3ED02046A3
:101B200098473BE02268136823F01603136022688D
:101B3000536923F080035361236CA3B122681368B7
:101B400023F008031360E26D3F239340BB60012341
:101B500084F83530002384F83430236D002B3FD0D7
:101B6000204698473CE0A36C002BE7D1EBE7E36B02
:101B7000A3B12046984711E01A6812F4807F09D17A
:101B80001A6822F010021A60012384F8353000230D
:101B900084F83430E36B0BB120469847636DFBB19A
:101BA000636D13F0010F17D0052384F835302268D8
:101BB000136823F001031360019B01330193AB42CF
:101BC00004D823681B6813F0010FF5D1012384F8B2
:101BD0003530002384F83430E36C0BB1204698474D
:101BE00003B0F0BD48000020B5814E1B074AD36802
:101BF00023F4E0631B041B0C000200F4E0600343C9
:101C000043F0BF6343F40033D360704700ED00E05E
:101C100000B5194BDB68C3F30223C3F1070CBCF119
:101C2000040F28BF4FF0040C03F1040EBEF1060FA1
:101C300018D9033B4FF0FF3E0EFA0CFC21EA0C01D1
:101C400099400EFA03F322EA0303194300280BDB41
:101C50000901C9B200F1604000F5614080F800134D
:101C60005DF804FB0023E5E700F00F000901C9B2AD
:101C7000024B1954F4E700BF00ED00E014ED00E062
:101C8000002807DB00F01F02400901239340024AAD
:101C900042F82030704700BF00E100E00138B0F1A9
:101CA000807F0BD24FF0E0235861054AF02182F883
:101CB00023100020986107221A61704701207047A5
:101CC00000ED00E010B504460E4B18784FF47A731F
:101CD000B3FBF0F30C4A1068B0FBF3F0FFF7DEFF44
:101CE00068B90F2C01D901200AE0002221464FF0EB
:101CF000FF30FFF78DFF054B1C60002000E0012046
:101D000010BD00BF4C000020480000205000002003
:101D100008B50B4B1A6842F400721A601A6842F454
:101D200080621A601A6842F480721A600320FFF71A
:101D30005DFF0F20FFF7C6FFFEF79AFF002008BDEA
:101D4000003C0240034A1168034B1B780B441360AC
:101D5000704700BF080200204C000020014B1868AB
:101D6000704700BF08020020026802F10C0353E82C
:101D7000003F23F0C0030C3242E800310029F3D1C8
:101D8000202380F841307047026802F10C0353E8C9
:101D9000003F23F490730C3242E800310029F3D164
:101DA000026802F1140353E8003F23F001031432E8
:101DB00042E800310029F3D1036B012B05D0202329
:101DC00080F84230002303637047026802F10C037D
:101DD00053E8003F23F010030C3242E800310029A1
:101DE000F3D1ECE790F84130DBB2212B01D0022097
:101DF00070478368B3F5805F17D0036A5A1C02628C
:101E00001A7803685A60C38C9BB2013B9BB2C384AF
:101E10004BB90268D36823F08003D3600268D368AB
:101E200043F04003D360002070470369002BE4D1E6
:101E3000036A1B880268C3F308035360036A023312
:101E40000362E0E738B504460268136923F440539F
:101E5000C1680B43136183680269134342691343EA
:101E6000C2691A430168CB6823F4164323F00C03BC
:101E70001343CB600268536923F4407381690B43B9
:101E800053610368314A934206D002F5806293425F
:101E900002D0FFF717FB01E0FFF724FBE369B3F57E
:101EA000004F29D00021031849411B1841F10001BE
:101EB000C90041EA5371DB00181863684FEA8302D6
:101EC0004FEA937341F10001FEF7D2F9204DA5FBD3
:101ED00000325109642303FB11031B013233A5FBBC
:101EE00003235B0903F0F00202EB011203F00F037E
:101EF000216813448B6038BD0023021843EB0301B3
:101F0000121841F10001C90041EA5271D2001018C3
:101F100041F10001626892185B41FEF7A9F90C4D8E
:101F2000A5FB00325109642303FB1103DB003233AC
:101F3000A5FB03235B095A0002F4F87202EB0112BD
:101F400003F00703216813448B60D4E700100140BD
:101F50001F85EB512DE9F04383B005460E46174629
:101F60009946DDF828802C68246836EA04030CBF03
:101F70004FF0010C4FF0000CBC4528D1B8F1FF3FE9
:101F8000F1D0FFF7EBFEA0EB0900404523D8B8F1F4
:101F9000000F22D02B68DA6812F0040FE3D0802EF5
:101FA000E1D0402EDFD01A6812F0080FDBD00024F9
:101FB00001941A6801925B680193019B2846FFF720
:101FC000E3FE08236B6485F84040012000E0002018
:101FD00003B0BDE8F0830320FAE70320F8E760B31D
:101FE00010B5044690F8413013B3242384F84130EF
:101FF0002268D36823F40053D3602046FFF722FF02
:102000002268136923F4904313612268536923F013
:102010002A0353612268D36843F40053D36000203D
:102020006064202384F8413084F84230606310BD3E
:1020300080F84030FEF73EFCD7E7012070472DE9DD
:10204000F04182B01E4690F84130DBB2202B56D1D1
:1020500004460D469046002955D00AB901204FE0AC
:1020600000234364212380F84130FFF777FE0746C1
:10207000A4F82480A4F82680A368B3F5805F02D07A
:102080004FF0000814E023692BB34FF000080FE075
:10209000202384F84130032032E038F8023B2268E4
:1020A000C3F308035360E28C92B2013A92B2E28425
:1020B000E38C9BB293B100963B46002280212046E0
:1020C000FFF748FF0028E3D1002DE6D015F8012BDB
:1020D00023685A60E7E7A8460025E9E700963B46F3
:1020E000002240212046FFF735FF18B9202384F84D
:1020F000413005E0202384F84130032000E0022035
:1021000002B0BDE8F0810120FAE790F84130DBB27F
:10211000202B10D189B192B101628284C284002344
:102120004364212280F841200168CA6842F080029D
:10213000CA6018467047022070470120704701208E
:102140007047000038B590F84130DBB2202B30D119
:10215000044600292FD00AB9012038BD01628284CB
:10216000C28400234364212084F84100A06B134DF6
:10217000C563A06B124D0564A06B124DC564A06BC6
:10218000036520681346021DA06BFFF7AFFB2368B1
:102190006FF040021A60226802F1140353E8003F16
:1021A00043F08003143242E800310029F3D10020CB
:1021B000D3E70220D1E70120CFE700BFC921000803
:1021C000312200083F22000808B50346806B1B68D7
:1021D0001B6813F4807F1AD10023C384026802F1C4
:1021E000140353E8003F23F08003143242E8003127
:1021F0000029F3D1026802F10C0353E8003F43F0D9
:1022000040030C3242E800310029F3D108BDFEF74B
:10221000D5FBFBE708B50168CA6822F04002CA6036
:10222000202280F84120FEF7C9FB002008BD70473E
:1022300008B5806BFFF7FBFF08BD7047704710B50E
:10224000846B23685A6994F84130DBB2212B10D09B
:1022500023685A6902F0400294F84230DBB2222B24
:1022600011D0636C43F0100363642046FFF7E6FF70
:1022700010BD02F08002002AEAD00023E384204649
:10228000FFF772FDE4E7002AEBD00023E385204648
:10229000FFF77AFDE5E708B5806B0023C385C384AB
:1022A000FFF7CCFF08BD90F84230DBB2222B69D19A
:1022B0008368B3F5805F4FD0826AB3F5805F04D046
:1022C000002B56D10369002B53D103685B68137050
:1022D000836A01338362C38D9BB2013B9BB2C3858A
:1022E000002B51D100B583B00268D36823F02003DE
:1022F000D3600268D36823F48073D36002685369A3
:1023000023F001035361202380F84230002343630C
:10231000036B012B33D100230363026802F10C032A
:1023200053E8003F23F010030C3242E8003100294B
:10233000F3D103681A6812F0100F06D00022019240
:102340001A6801925B680193019B818DFEF784FB03
:10235000002003B05DF804FB0269002AACD1826A58
:1023600003685B68C3F308031380836A02338362E4
:10237000B1E703685B6803F07F031370A8E7FEF71B
:102380002FFBE5E7022070470020704730B583B08F
:10239000044602681368D068516913F00F0505D12F
:1023A00013F0200F02D010F0200F19D12DB111F031
:1023B000010119D110F4907F16D1216B01297DD034
:1023C00013F0800F03D010F0800F40F0198113F04C
:1023D000400F03D010F0400F40F0168103B030BD25
:1023E0002046FFF760FFF9E713F0010F06D010F465
:1023F000807F03D0626C42F00102626413F0040F2C
:1024000004D019B1626C42F00202626413F0020F50
:1024100004D019B1626C42F00402626413F0080F38
:1024200007D010F0200F00D119B1626C42F0080201
:102430006264626C002AD1D013F0200F02D010F039
:10244000200F29D123685B6903F04003626C12F00E
:10245000080F00D163B32046FFF796FC23685B6941
:1024600013F0400F20D0226802F1140353E8003F1C
:1024700023F04003143242E800310029F3D1E36B2A
:1024800073B1634A1A65E06BFFF7AFFA0028A5D075
:10249000E06B036D9847A1E72046FFF704FFD1E703
:1024A0002046FFF7CBFE99E72046FFF7C7FE95E7EA
:1024B0002046FFF7C3FE002363648FE713F0100F7D
:1024C0003FF47EAF10F0100F3FF47AAF002301937A
:1024D0001368019353680193019B536913F0400FF4
:1024E00052D0E26B13685B689BB2002B3FF476AF6F
:1024F000A18D99427FF672AFE385D369B3F5807FF2
:1025000037D0226802F10C0353E8003F23F48073B4
:102510000C3242E800310029F3D1226802F11403A1
:1025200053E8003F23F00103143242E80031002950
:10253000F3D1226802F1140353E8003F23F0400373
:10254000143242E800310029F3D1202384F84230CC
:1025500000232363226802F10C0353E8003F23F0B9
:1025600010030C3242E800310029F3D1E06BFFF791
:10257000F2F902236363A18DE38D9BB2C91A89B27C
:102580002046FEF769FA29E7A18DE38D9BB2C91AAF
:1025900089B2E38D9BB2002B3FF420AF00293FF4BA
:1025A0001DAF226802F10C0353E8003F23F490733F
:1025B0000C3242E800300028F3D1226802F1140303
:1025C00053E8003F23F00103143242E800300028B2
:1025D000F3D1202384F8423000232363226802F1E0
:1025E0000C0353E8003F23F010030C3242E80030A4
:1025F0000028F3D1022363632046FEF72DFAEDE6AF
:102600002046FFF7EFFBE9E62046FFF703FEE5E68D
:102610009722000808B5806B01234363036B012BED
:1026200002D0FFF70AFE08BD818D4908FEF714FAB3
:10263000F9E708B50346806B1B681B6813F4807FBD
:102640002BD10023C385026802F10C0353E8003F3D
:1026500023F480730C3242E800310029F3D1026880
:1026600002F1140353E8003F23F00103143242E85F
:1026700000310029F3D1026802F1140353E8003F4E
:1026800023F04003143242E800310029F3D1202323
:1026900080F84230036B012B07D000234363036BA8
:1026A000012B0FD0FEF79CF908BD026802F10C0364
:1026B00053E8003F23F010030C3242E800310029B8
:1026C000F3D1EAE7818DFEF7C7F9EDE781628285F4
:1026D000C28500234364222380F84230036923B17A
:1026E0000268D36843F48073D3600268536943F08F
:1026F000010353610268D36843F02003D3600020D4
:10270000704708B590F84230DBB2202B08D149B1B0
:102710000AB9012008BD00230363FFF7D7FFF9E7DB
:102720000220F7E70120F5E730B583B004461346F1
:102730008162828500254564222280F84220C26B96
:102740001F48D063E26B1F481064E26B1E48D064E0
:10275000E26B156520680A46011DE06BFFF7C6F8BD
:10276000019523681A6801925B680193019B2369B4
:102770005BB1226802F10C0353E8003F43F480731D
:102780000C3242E800310029F3D1226802F114032F
:1027900053E8003F43F00103143242E800310029BE
:1027A000F3D1226802F1140353E8003F43F04003E1
:1027B000143242E800310029F3D1002003B030BDCB
:1027C00033260008152600083F22000890F8423002
:1027D000DBB2202B29D110B582B0044639B312B92F
:1027E000012002B010BD0123036300234363FFF700
:1027F0009BFF0028F5D1236B012B01D00120F0E7CE
:102800000023019323681A6801925B680193019B7E
:10281000226802F10C0353E8003F43F010030C322E
:1028200042E800310029F3D1DBE7022070470120A4
:10283000D7E700F1080343604FF0FF328260C360C6
:1028400003610023036070470023036170474368FE
:102850004B609A688A60516099600861036801332F
:102860000360704730B40D68B5F1FF3F11D000F13F
:1028700008031C465B681A68AA42FAD963684B6071
:1028800099608C606160086103680133036030BC4B
:1028900070470469F2E70369416882688A604168A9
:1028A00051605A68824206D0002202611A68013AD9
:1028B0001A601868704782685A60F5E70346406AF4
:1028C00018B11B6B1868C0F13800704710B504468A
:1028D00001F090FEA26BE36B9A4204D0002401F059
:1028E000ABFE204610BD0124F9E710B5044601F007
:1028F00081FEA36B23B9012401F09EFE204610BD8A
:102900000024F9E770B504461546866B026C5AB987
:1029100003681BB100200136A66370BD806801F01A
:10292000CDF90023A360F6E76DB9406802F00AF81C
:10293000226C636813446360A268934219D32368CE
:1029400063602846E7E7C06801F0FCFF226C514253
:10295000E3689B1AE3602268934202D2A3680B44A7
:10296000E360022D01D00020D5E726B1013E002012
:10297000D1E72846CFE70020CDE70346026C6AB1D5
:1029800010B50846D9681144D9609C68A14201D3AA
:102990001968D960D96801F0D5FF10BD704738B506
:1029A000054601F027FE95F8454064B201E0013C80
:1029B00064B2002C0ADD6B6A43B105F1240001F01A
:1029C00087F80028F3D001F017F9F0E7FF2385F826
:1029D000453001F031FE01F00DFE95F8444064B23F
:1029E00001E0013C64B2002C0ADD2B6943B105F122
:1029F000100001F06DF80028F3D001F0FDF8F0E7C9
:102A0000FF2385F8443001F017FE38BD38B5E0B13A
:102A10000D46044601F0EEFD2368E26B216C01FBDC
:102A20000230A0600020A0636360013A02FB013322
:102A3000E360FF2384F8443084F84530FDB923690E
:102A400063B901F0F9FD012038BD4FF0500383F365
:102A50001188BFF36F8FBFF34F8FFEE704F11000B3
:102A600001F036F80028ECD04FF0E0234FF0805210
:102A7000C3F8042DBFF34F8FBFF36F8FE1E704F16D
:102A80001000FFF7D6FE04F12400FFF7D2FED8E7CE
:102A900038B51D46049C0B4649B92460E0632364A5
:102AA00001212046FFF7B2FF84F84C5038BD226068
:102AB000F4E740B94FF0500383F31188BFF36F8FF1
:102AC000BFF34F8FFEE710B584B01C46844653B168
:102AD00092B189B94FF0500383F31188BFF36F8F20
:102AE000BFF34F8FFEE74FF0500383F31188BFF31E
:102AF0006F8FBFF34F8FFEE76AB150230393039BA1
:102B0000502B13D04FF0500383F31188BFF36F8F16
:102B1000BFF34F8FFEE70029EFD04FF0500383F350
:102B20001188BFF36F8FBFF34F8FFEE7039B012325
:102B300084F8463000949DF818306046FFF7A8FFEF
:102B4000204604B010BD40B94FF0500383F3118804
:102B5000BFF36F8FBFF34F8FFEE7F0B583B00D4625
:102B60001446064601FB00F0503001F021FC0746F8
:102B700050B1002380F846300090234600F1500207
:102B800029463046FFF784FF384603B0F0BDF0B564
:102B900085B0019288B10F461D460446B1B1022DA1
:102BA00020D1E36B012B1DD04FF0500383F311882C
:102BB000BFF36F8FBFF34F8FFEE74FF0500383F3E8
:102BC0001188BFF36F8FBFF34F8FFEE7036C002BAD
:102BD000E5D04FF0500383F31188BFF36F8FBFF33D
:102BE0004F8FFEE701F00EF8064658B9019B002B07
:102BF00048D04FF0500383F31188BFF36F8FBFF3BA
:102C00004F8FFEE700263DE02A4639462046FFF773
:102C100079FE636A7BB948B14FF0E0234FF08052F0
:102C2000C3F8042DBFF34F8FBFF36F8F01F004FD86
:102C3000012005B0F0BD04F1240000F049FF002898
:102C4000F4D04FF0E0234FF08052C3F8042DBFF3CF
:102C50004F8FBFF36F8FE9E701F0EEFC0020E8E74C
:102C600002A800F07BFF012619E0002384F844301D
:102C700021E0002384F8453023E02046FFF78FFE53
:102C800000F006FE01F0B6FCA26BE36B9A42BBD3E8
:102C9000022DB9D0019B002BDED0002EE0D001F038
:102CA000CBFC00F05BFD01F0A5FC94F8442052B28F
:102CB000B2F1FF3FD9D094F8452052B2B2F1FF3FB4
:102CC000D7D001F0B9FC01A902A800F053FFD8B990
:102CD0002046FFF7FBFD0028CFD0019904F110003A
:102CE00000F0C2FE2046FFF75AFE00F0D1FD00289A
:102CF000C8D14FF0E0234FF08052C3F8042DBFF34A
:102D00004F8FBFF36F8FBDE72046FFF748FE00F0FF
:102D1000BFFD00208DE72DE9F84390B10F46164620
:102D20001C460546B1B1022C20D1EB6B012B1DD006
:102D30004FF0500383F31188BFF36F8FBFF34F8FB2
:102D4000FEE74FF0500383F31188BFF36F8FBFF39B
:102D50004F8FFEE7036C002BE5D04FF0500383F359
:102D60001188BFF36F8FBFF34F8FFEE701F068FD4F
:102D7000EFF311894FF0500383F31188BFF36F8F86
:102D8000BFF34F8FAA6BEB6B9A4206D3022C04D091
:102D9000002089F31188BDE8F88395F845804FFA43
:102DA00088F8AB6B224639462846FFF7ABFDB8F1F1
:102DB000FF3F06D008F101035BB285F845300120E2
:102DC000E7E76B6A0BB90120E3E705F1240000F0A7
:102DD0007FFE18B126B101203060DAE70120D8E784
:102DE0000120D6E768B170B50C460546036C8BB17F
:102DF0004FF0500383F31188BFF36F8FBFF34F8FF2
:102E0000FEE74FF0500383F31188BFF36F8FBFF3DA
:102E10004F8FFEE70368EBB101F012FDEFF311866F
:102E20004FF0500383F31188BFF36F8FBFF34F8FC1
:102E3000AA6BEB6B934226D995F845305BB2013211
:102E4000AA63B3F1FF3F11D001335BB285F845307F
:102E5000012019E08368002BDED04FF0500383F38C
:102E60001188BFF36F8FBFF34F8FFEE76B6A0BB90B
:102E7000012009E005F1240000F02AFE38B144B138
:102E80000120206000E0002086F3118870BD012041
:102E9000FAE70120F8E7F0B585B0019290B10F464E
:102EA0000446C1B100F0AEFE064600BB019B002BFC
:102EB0005ED04FF0500383F31188BFF36F8FBFF3E1
:102EC0004F8FFEE74FF0500383F31188BFF36F8FEE
:102ED000BFF34F8FFEE7036C002BE3D04FF050039E
:102EE00083F31188BFF36F8FBFF34F8FFEE7002688
:102EF0003EE039462046FFF740FD013DA5632369CA
:102F000023B901F099FB012005B0F0BD04F11000D8
:102F100000F0DEFD0028F4D04FF0E0234FF08052A7
:102F2000C3F8042DBFF34F8FBFF36F8FE9E701F0B4
:102F300083FB0020E8E702A800F010FE012621E054
:102F4000002384F8443029E0002384F845302BE046
:102F50002046FFF724FD00F09BFC09E02046FFF728
:102F60001EFD00F095FC2046FFF7BFFC00283FD176
:102F700001F040FBA56B002DBBD1019B002BD6D0EF
:102F8000002ED8D001F058FB00F0E8FB01F032FB36
:102F900094F844305BB2B3F1FF3FD1D094F84530A0
:102FA0005BB2B3F1FF3FCFD001F046FB01A902A80D
:102FB00000F0E0FD0028D1D12046FFF796FC002864
:102FC000C6D0019904F1240000F04EFD2046FFF721
:102FD000E6FC00F05DFC0028CAD14FF0E0234FF082
:102FE0008052C3F8042DBFF34F8FBFF36F8FBFE73D
:102FF000002089E770B584B0019158B10446036C94
:103000008BB14FF0500383F31188BFF36F8FBFF381
:103010004F8FFEE74FF0500383F31188BFF36F8F9C
:10302000BFF34F8FFEE700F0EDFD054650B9019B61
:103030005BB14FF0500383F31188BFF36F8FBFF381
:103040004F8FFEE70026354655E0064653E0013B2C
:10305000A36323683BB123694BB901F0EDFA012664
:10306000304604B070BD00F0C1FEA060F3E704F18B
:10307000100000F02DFD0028EFD04FF0E0234FF0BE
:103080008052C3F8042DBFF34F8FBFF36F8FE4E777
:1030900046B14FF0500383F31188BFF36F8FBFF336
:1030A0004F8FFEE701F0C8FADAE702A800F056FDFC
:1030B00001252AE0002384F8443032E0002384F81C
:1030C000453034E001F096FAA06800F0ABFD06460A
:1030D00001F0B2FA3BE02046FFF761FC00F0D8FBBC
:1030E00009E02046FFF75BFC00F0D2FB2046FFF72B
:1030F000FCFB002842D101F07DFAA36B002BA6D186
:10310000019B002BC4D0002DCFD001F095FA00F028
:1031100025FB01F06FFA94F844305BB2B3F1FF3F46
:10312000C8D094F845305BB2B3F1FF3FC6D001F090
:1031300083FA01A902A800F01DFD0028D1D1204684
:10314000FFF7D3FB0028C6D02368002BBAD0019923
:1031500004F1240000F088FC2046FFF720FC00F07A
:1031600097FB0028C7D14FF0E0234FF08052C3F8FF
:10317000042DBFF34F8FBFF36F8FBCE70EB900264E
:103180006EE701F037FA2046FFF798FB0146A0688A
:1031900000F0DCFD01F050FAF1E700000023072BFE
:1031A0000CD8074A52F833200AB10133F7E7044A32
:1031B00042F8331002EBC30358607047704700BFFA
:1031C0000C02002070B504460D46164601F012FAB6
:1031D00094F844305BB2B3F1FF3F0DD094F8453022
:1031E0005BB2B3F1FF3F0BD001F026FAA36B5BB1EA
:1031F0002046FFF7D4FB70BD002384F84430EDE790
:10320000002384F84530EFE73246294604F12400D4
:1032100000F042FCECE70000084B1B681B6823B978
:10322000074B4FF0FF321A607047044B1B68DB6896
:10323000DB685A68024B1A60704700BF50020020DA
:10324000F80600202DE9F04780460D4617469946BE
:10325000089EDDF824A00A9C9200A521206B01F0B5
:103260007FFB236B07F18042013A03EB820727F0D3
:103270000707B5B34FF0000CBCF10F0F0BD815F8D2
:103280000C2004EB0C0383F8342015F80C3013B138
:103290000CF1010CF0E7002384F84330372E00D9FD
:1032A0003726E662E66400252565201DFFF7CCFA87
:1032B00004F11800FFF7C8FA2461C6F13806A661C8
:1032C0006462656584F858504A464146384601F0C4
:1032D00069F92060BAF1000F01D0CAF80040BDE8DA
:1032E000F087002384F83430D8E7000038B5002494
:1032F00007E004EB840293000E481844FFF799FAA4
:103300000134372CF5D90C4D2846FFF792FA0B4CB7
:103310002046FFF78EFA0A48FFF78BFA0948FFF7B5
:1033200088FA0948FFF785FA084B1D60084B1C60B6
:1033300038BD00BF58020020CC060020E006002067
:1033400004070020300700201C0700205002002046
:103350005402002010B5044601F04CF9224A1368CB
:1033600001331360214B1B685BB1214B1B686BB9A8
:103370001E4B1B68DA6AE36A9A4207D81B4B1C6033
:1033800004E01A4B1C601368012B29D0194A1368FA
:10339000013313606364E06A174B1B68984201D9DC
:1033A000154B186000EB8000211D144B03EB8000CF
:1033B000FFF74DFA01F040F90D4B1B687BB10B4B49
:1033C0001B68DA6AE36A9A4209D24FF0E0234FF0B1
:1033D0008052C3F8042DBFF34F8FBFF36F8F10BD22
:1033E000FFF784FFD2E700BFB80600204C020020A0
:1033F00018070020C4060020C8060020580200203C
:1034000010B5044690F8593063B1012B11D0022B4E
:103410000ED04FF0500383F31188BFF36F8FBFF3CB
:103420004F8FFEE7006B01F041F8204601F03EF8B7
:1034300010BD01F03BF8FBE70F4B1B68D3B110B593
:1034400001F0D8F80D4BDB68DC68201DFFF723FA8C
:103450000B4A1368013B1360074A1368013B136072
:1034600001F0EAF82046FFF7CBFF034B1B68002B67
:10347000E6D110BD704700BFBC0600203007002019
:10348000B806002008B5FFF7D7FF074B1B68012BD4
:10349000F9D94FF0E0234FF08052C3F8042DBFF369
:1034A0004F8FBFF36F8FEEE75802002070B50446D0
:1034B0000D46174B1E68174B18680430FFF7EBF9E1
:1034C000B4F1FF3F0DD03444124B1B685C60A64240
:1034D00010D9114B18680F4B19680431FFF7C2F966
:1034E00070BD002DEFD00B4B196804310B48FFF76E
:1034F000AEF9F5E70A4B1868064B19680431FFF777
:10350000B1F9084B1B68A342EAD9064B1C60E7E7F8
:10351000440700204C020020540200201C07002019
:1035200050020020F806002030B587B00B9C7CB11B
:103530000C9DB5B15C250495049D5C2D1AD04FF00F
:10354000500383F31188BFF36F8FBFF34F8FFEE7F4
:103550004FF0500383F31188BFF36F8FBFF34F8F8A
:10356000FEE74FF0500383F31188BFF36F8FBFF373
:103570004F8FFEE7049D0C9D2C63022485F8594073
:1035800000240394029505AC01940A9C0094FFF773
:1035900059FE0C98FFF7DEFE059807B030BD2DE907
:1035A000F04385B00746884614461E46900000F05A
:1035B000FFFE00B381465C2000F0FAFE0546B0B184
:1035C000C0F83090E5B1002385F859300393029597
:1035D0000D9B01930C9B009333462246414638468F
:1035E000FFF730FE2846FFF7B5FE012005E048460C
:1035F00000F05CFFE6E74FF0FF3005B0BDE8F08378
:103600004FF0FF30F9E7000038B5044600F0F2FF54
:1036100024B3251D2846FFF73EF9A36A1BB104F128
:103620001800FFF738F91F4A1368013313601E4B67
:103630001B68A34215D01D4A1368013B1360204646
:10364000FFF7DEFEFFF7E8FD00F0F6FF184B1B6802
:103650001BB1154B1B68A3420CD038BD124B1C6824
:10366000D7E729461348FFF7F2F8134A13680133E6
:103670001360E9E7114B1B6843B14FF0500383F32C
:103680001188BFF36F8FBFF34F8FFEE74FF0E0233A
:103690004FF08052C3F8042DBFF34F8FBFF36F8FED
:1036A000DBE700BFC40600204C020020B806002063
:1036B0001807002030070020BC060020C0060020AC
:1036C00010B588B000240594069407AA06A905A899
:1036D00000F0F2FD059B0293069B019300942346A4
:1036E000079A18491848FFF71FFF184B186040B198
:1036F00000F0F6FB012806D0B0F1FF3F18D008B06B
:1037000010BD0020F6E74FF0500383F31188BFF39C
:103710006F8FBFF34F8F0E4B4FF0FF321A600D4B80
:1037200001221A600C4B00221A6000F0FDFFE6E750
:103730004FF0500383F31188BFF36F8FBFF34F8FA8
:10374000FEE700BF245A000885340008F406002074
:10375000F80600201807002044070020024A1368DA
:1037600001331360704700BFC0060020014B18688A
:10377000704700BF44070020F8B53A4B1B68002B88
:1037800069D1394B1D6801351D60C5B9374B1B68C0
:103790001B6843B14FF0500383F31188BFF36F8F61
:1037A000BFF34F8FFEE7314A1168314B1868106044
:1037B0001960304A136801331360FFF72DFD2E4B5B
:1037C0001B68AB423DD900272C4B1B68DB6A03EB1F
:1037D00083039A002A4B9B58012B00D90127294BC0
:1037E0001B68002B3CD001273AE001271F4B1B68C8
:1037F0001B6843B31D4B1B68DB68DC6863689D4234
:1038000026D3261D3046FFF746F8A36A1BB104F104
:103810001800FFF740F8E36A1B4A1268934201D987
:10382000194A136003EB83039A003146144810448D
:10383000FFF70DF8E26A114B1B68DB6A9A42D4D29B
:10384000D4E70027D2E70C4B4FF0FF321A60BBE7FA
:10385000094A1360B8E70D4A136801331360002763
:103860003846F8BDC0060020440700205002002062
:1038700054020020FC060020F80600204C02002024
:103880005802002048070020C8060020000700203A
:1038900038B5354B1B6843B94FF0500383F311889B
:1038A000BFF36F8FBFF34F8FFEE700F0A3FE2E4BE9
:1038B0001A68013A1A601B68002B4FD12B4B1B680A
:1038C0000BB900244BE00024294B1B681BB3284B89
:1038D000DB68DC6804F11800FEF7DDFF251D2846D3
:1038E000FEF7D9FFE06A234B1B68984201D9214BB0
:1038F000186000EB800029461F4B03EB8000FEF7A9
:10390000A6FFE26A1D4B1B68DB6A9A42DCD31C4BA4
:1039100001221A60D8E70CB1FFF77EFC194B1C6836
:1039200084B9174B1C68D4B14FF0E0234FF080529C
:10393000C3F8042DBFF34F8FBFF36F8F01240EE048
:10394000013C07D0FFF718FF0028F9D00C4B0122EB
:103950001A60F5E70B4B00221A60E2E7002400F042
:103960006BFE204638BD00BFC0060020B806002010
:1039700004070020C8060020580200204C02002046
:10398000480700200007002010B5A8B10446104BDE
:103990001B6843B14FF0500383F31188BFF36F8F5F
:1039A000BFF34F8FFEE7FFF7D9FE00212046FFF758
:1039B0007DFDFFF76DFF48B94FF0E0234FF08052D7
:1039C000C3F8042DBFF34F8FBFF36F8F10BD00BF3F
:1039D000C00600201F4B1B681BB11F4B01221A6041
:1039E00070471D4B00221A601C4B1B6803EB8301C0
:1039F0008A001B498A585AB90BB1013BF6E74FF0D0
:103A0000500383F31188BFF36F8FBFF34F8FFEE72F
:103A100003EB830082000A4450684068506003EB67
:103A2000830C4FEA8C020832114488420BD003EB1E
:103A3000830291000A4A0A445268D168094A116017
:103A4000064A13607047406862469100044A0A447F
:103A50005060ECE7C006002048070020C8060020A0
:103A6000580200204C02002058B110B50C46094AFB
:103A700011681831FEF7F6FE01212046FFF716FD0A
:103A800010BD4FF0500383F31188BFF36F8FBFF366
:103A90004F8FFEE74C02002038B570B10D4614463A
:103AA0000A4A11681831FEF7D2FE0CB14FF0FF350B
:103AB00021462846FFF7FAFC38BD4FF0500383F348
:103AC0001188BFF36F8FBFF34F8FFEE74C020020CA
:103AD00038B5C368DC6824B304F118052846FEF73E
:103AE000DAFE184B1B682BBB251D2846FEF7D3FEBC
:103AF000E06A154B1B68984201D9134B186000EB24
:103B000080002946114B03EB8000FEF7A0FEE26A1D
:103B10000F4B1B68DB6A9A4211D901200D4B1860CC
:103B200038BD4FF0500383F31188BFF36F8FBFF39D
:103B30004F8FFEE729460848FEF789FEE7E7002099
:103B4000EEE700BFC0060020C80600205802002093
:103B50004C0200204807002004070020034B1B688C
:103B60000360034B1B684360704700BFFC060020E6
:103B700044070020F8B5C8B10C460546F9B100F07D
:103B800039FD1B4B19686B68C81A2268B2F1FF3FF8
:103B900026D0184E36682F68B74201D08B4224D900
:103BA000824215D80023236001241AE04FF050030D
:103BB00083F31188BFF36F8FBFF34F8FFEE74FF092
:103BC000500383F31188BFF36F8FBFF34F8FFEE76E
:103BD0005B1A134423602846FFF7C0FF002400E06F
:103BE000002400F029FD2046F8BD0124F9E700BFBC
:103BF00044070020FC060020014B01221A60704798
:103C000048070020054B1B6833B1054B1B680BB1FF
:103C100000207047022070470120704718070020DD
:103C2000C006002000283ED038B50446C36A204AAA
:103C30001268D26A93422ED28269002A05DB1C4A9E
:103C40001268D26AC2F138028261616903EB8303B0
:103C5000184A02EB8303994205D0154B1B68DB6AB7
:103C6000E362012038BD251D2846FEF714FE104BE7
:103C70001B68D86AE062104B1B68984201D90E4B52
:103C8000186000EB800029460A4B03EB8000FEF72A
:103C9000DEFD0120E6E7C26C054B1B68DB6A9A4239
:103CA00003D30020DEE7002070470120DAE700BFE1
:103CB0004C02002058020020C806002000283BD0FB
:103CC00038B504461E4B1B68834208D04FF05003A2
:103CD00083F31188BFF36F8FBFF34F8FFEE7036D40
:103CE00043B94FF0500383F31188BFF36F8FBFF3D5
:103CF0004F8FFEE7013B0365C16AC26C91421DD044
:103D00000BB1002038BD051D2846FEF7C4FDE06C50
:103D1000E062C0F13803A3610A4B1B68984201D9E5
:103D2000084B186000EB80002946074B03EB80002E
:103D3000FEF78DFD0120E5E7002070470020E1E758
:103D40004C020020C806002058020020002846D05F
:103D500038B50446036D43B94FF0500383F311881F
:103D6000BFF36F8FBFF34F8FFEE7C26C8A4200D262
:103D70000A46E16A914201D0012B00D038BD184BB0
:103D80001B68A34222D0E262A369002B02DBC2F1CE
:103D90003802A261626901EB8101124B03EB8101E0
:103DA0008A42EBD1251D2846FEF775FDE06A0E4BD1
:103DB0001B68984201D90C4B186000EB8000294623
:103DC000084B03EB8000FEF742FDD7E74FF05003AE
:103DD00083F31188BFF36F8FBFF34F8FFEE77047F8
:103DE0004C02002058020020C8060020054B1B682A
:103DF00023B1044B1A68136D01331365014B186826
:103E0000704700BF4C020020064B1A6813682BB99C
:103E10000123036023B9D368186870470023F8E7CB
:103E2000002070474C07002008B5416000619142B6
:103E30000CD8D21A83699A4201D3012008BD011D12
:103E4000094B1868FEF70EFD0020F7E79A4201D2F1
:103E5000994206D2011D054B1868FEF703FD0020AC
:103E6000ECE70120EAE700BF500700204C070020E4
:103E700030B583B000F0BEFB114B1B681BB100F0E6
:103E8000DBFB03B030BD0F4D2846FEF7D2FC0E4CD5
:103E90002046FEF7CEFC0D4B1D600D4B1C60002331
:103EA00000930C4B0C4A10210A20FEF702FE044B33
:103EB00018600028E3D00949FFF770F9DFE700BF79
:103EC00070080020F4070020080800204C0700209C
:103ED0005007002020080020540700202C5A00081A
:103EE00010B588B0FFF7C4FF124B1B68CBB100249C
:103EF0000594069407AA06A905A800F0E9F9059B10
:103F00000293069B0193022300932346079A0A49D2
:103F10000A48FFF709FB0A4B186010B1012008B0EE
:103F200010BD4FF0500383F31188BFF36F8FBFF3C1
:103F30004F8FFEE770080020345A00084542000801
:103F400074080020B8B19C4603461848006858B36E
:103F500000B585B000910192029305291CDCFFF7A2
:103F600051FE022810D000231A4669460F48006807
:103F7000FEF70DFE15E04FF0500383F31188BFF3F9
:103F80006F8FBFF34F8FFEE70023069A69460748FD
:103F90000068FEF7FCFD04E0002362466946FEF778
:103FA000BAFE05B05DF804FB0020704770080020E1
:103FB00070B582B01B4B1B681A6862B3DB681E6861
:103FC000DC68251D2846FEF766FC236A20469847D4
:103FD00094F8283013F0040FECD0A36933449E42C8
:103FE00007D26360246129460E4B1868FEF73AFC3D
:103FF000E0E7002100910B4632462046FFF7A2FF82
:104000000028D7D14FF0500383F31188BFF36F8F8F
:10401000BFF34F8FFEE7044A10680249086013603F
:1040200002B070BD4C0700205007002038B505468F
:10403000FFF79CFB0446074B1B68834205D800230F
:104040002B60044B1C60204638BDFFF7B1FF0123F5
:104050002B60F6E71C08002070B582B006460D46BE
:1040600017490968C968CC68201DFEF714FC94F84C
:1040700028C01CF0040F08D12CF0010C84F828C0D3
:10408000236A2046984702B070BDA16933462A468C
:1040900031442046FFF7C8FE0028F1D000210091EE
:1040A0000B4632462046FFF74DFF0028E8D14FF07F
:1040B000500383F31188BFF36F8FBFF34F8FFEE779
:1040C0004C07002070B582B006460C46FFF746FB51
:1040D00001A8FFF7ABFF019B33BB05460CB9B0420B
:1040E00019D224B1124A12681268DAB901242246A0
:1040F000711B104B1868FFF765F8FFF7C9FBA8B9EB
:104100004FF0E0234FF08052C3F8042DBFF34F8FE0
:10411000BFF36F8F0AE0FFF7BBFB29463046FFF77E
:104120009BFF03E01C46E2E7FFF7B2FB02B070BD65
:10413000500700207008002010B588B002E0049BF2
:10414000002B0FDA002204A93D4B1868FEF7A3FEEE
:10415000002873D0049B002BF1DA07990698059B81
:104160009847ECE7069C636913B1201DFEF793FBAB
:1041700003A8FFF75BFF049B092BE3D8DFE803F0FC
:104180000505053037500505303794F8283043F0E1
:10419000010384F82830059BA16902461944204692
:1041A000FFF742FE0028CDD0236A2046984794F8B6
:1041B000283013F0040FC5D0A269002100910B46EE
:1041C000059802442046FFF7BDFE0028BAD14FF003
:1041D000500383F31188BFF36F8FBFF34F8FFEE758
:1041E00094F8283023F0010384F82830AAE794F8E3
:1041F000283043F0010384F828300599A16131B1DA
:104200000346024601442046FFF70EFE9AE74FF0B0
:10421000500383F31188BFF36F8FBFF34F8FFEE717
:1042200094F8283013F0020F04D023F0010384F82F
:10423000283087E7204600F039F983E708B010BD41
:104240007008002000B583B001A8FFF7DDFD0199DB
:10425000FFF738FFFFF770FFF6E70000EFF3058385
:104260002BB9064B186828B901221A6070476FF005
:10427000050070474FF0FF30704700BFD40A0020A0
:10428000EFF3058373B90A4B1B68012B0DD110B5F1
:104290000024084BDC77064B02221A60FFF710FA65
:1042A000204610BD6FF0050070474FF0FF3070479B
:1042B000D40A002000ED00E0034B0360034B0B60C9
:1042C00080231360704700BF780A00207808002020
:1042D000034B0360034B0B604FF480731360704714
:1042E000D80E0020D80A0020124A12F0070F1ED064
:1042F000D11D21F00701C1F5705313440A460E4841
:104300000260002141601344083B23F007030B487F
:10431000036059601960991A51601360084B196065
:10432000084B1960084B4FF000421A6070474FF479
:104330007053E4E7380F00204C4B0020340F00206E
:10434000404B00203C4B0020384B0020164B1A46B7
:104350001B688342FBD3516802EB010C844509D0F2
:10436000416800EB010C634509D00360904219D00D
:10437000106070474068014451601046F0E710B487
:104380000A4C2468A3420BD05B681944416013684F
:104390001B680360904200D010605DF8044B7047CA
:1043A0000460F7E7704700BF4C4B0020340F00203B
:1043B00070B50546FFF7D2F9364B1B68A3B1364BF3
:1043C0001B681D424ED135B1083515F0070F02D0DC
:1043D00025F007050835002D46D0304B1B68AB4251
:1043E00051D32F4A146804E0FFF77EFFE7E7224627
:1043F0001C466368AB4202D22368002BF7D1254BE1
:104400001B68A34241D016680836236813606368AE
:104410005B1B102B10D9601910F0070F08D04FF05C
:10442000500383F31188BFF36F8FBFF34F8FFEE705
:1044300043606560FFF78AFF626818490B689B1A42
:104440000B60184909688B4201D216490B60124B68
:104450001B681343636000232360134A136801330E
:10446000136002E0002600E00026FFF711FA16F0C4
:10447000070F0CD04FF0500383F31188BFF36F8FF9
:10448000BFF34F8FFEE70026EFE70026EDE730464B
:1044900070BD00BF340F0020384B00203C4B002083
:1044A0004C4B0020404B0020444B0020002834D0CF
:1044B00038B50446A0F1080550F8043C174A1268C4
:1044C000134208D14FF0500383F31188BFF36F8F6D
:1044D000BFF34F8FFEE750F8081C41B14FF0500377
:1044E00083F31188BFF36F8FBFF34F8FFEE723EA8B
:1044F000020340F8043CFFF731F954F8041C084A61
:1045000013680B4413602846FFF720FF054A136821
:1045100001331360FFF7BCF938BD7047384B0020FA
:104520003C4B0020484B002082B0002301930D4BF0
:104530001B68B3F1FF3F08D04FF0500383F311889D
:10454000BFF36F8FBFF34F8FFEE74FF0500383F33E
:104550001188BFF36F8FBFF34F8F019B002BFCD0EF
:1045600002B070475400002008480068006880F3DB
:1045700008884FF0000080F3148862B661B6BFF37C
:104580004F8FBFF36F8F00DF00BF000008ED00E02A
:10459000DFF80C00016841F4700101607047000011
:1045A00088ED00E04FF0807340F8043C21F00101F9
:1045B00040F8081C054B40F80C3C40F8202C6FF0EC
:1045C000020340F8243C4438704700BF29450008E6
:1045D000074B19680868B0E8F04F80F30988BFF30B
:1045E0006F8F4FF0000080F311887047AFF30080A9
:1045F0004C0200204FF0500383F31188BFF36F8FFC
:10460000BFF34F8F0B4A136801331360012B00D0A7
:1046100070474FF0E023D3F8043D13F0FF0FF7D0BD
:104620004FF0500383F31188BFF36F8FBFF34F8FA9
:10463000FEE700BF54000020094B1B6843B94FF050
:10464000500383F31188BFF36F8FBFF34F8FFEE7E3
:10465000013B034A13600BB983F31188704700BF15
:1046600054000020000000000000000000000000D6
:10467000EFF30980BFF36F8F154B1A681EF0100F10
:1046800008BF20ED108A20E9F04F10602DE90900E5
:104690004FF0500080F31188BFF34F8FBFF36F8F3F
:1046A000FFF798F94FF0000080F3118809BC1968F2
:1046B0000868B0E8F04F1EF0100F08BFB0EC108A89
:1046C00080F30988BFF36F8F704700BFAFF300809E
:1046D0004C02002008B54FF0500383F31188BFF35C
:1046E0006F8FBFF34F8FFFF747F828B14FF0E023EC
:1046F0004FF08052C3F8042D002383F3118808BDC6
:104700004FF0E022002313619361054B1B680549BC
:10471000A1FB03139B09013B5361072313617047FE
:1047200048000020D34D62104FF0E023D3F8002D55
:104730003D4B9A421CD04FF0E023D3F8002D3B4B69
:104740009A421ED030B583B0394B1A78D2B201925A
:10475000FF221A701B78DBB28DF803309DF803300E
:1047600003F05003334A1370334B07221A601BE0E7
:104770004FF0500383F31188BFF36F8FBFF34F8F58
:10478000FEE74FF0500383F31188BFF36F8FBFF341
:104790004F8FFEE7284A1368013B13609DF80330F2
:1047A0005B00DBB28DF803309DF8033013F0800F0F
:1047B000F0D1214B1B68032B08D04FF0500383F33B
:1047C0001188BFF36F8FBFF34F8FFEE71B021A4AAA
:1047D000136003F4E0631360019BDBB2144A1370AF
:1047E0004FF0E024D4F8203D43F47003C4F8203D9A
:1047F000D4F8203D43F07043C4F8203DFFF780FF1C
:1048000000250E4B1D60FFF7C3FED4F8343F43F084
:104810004043C4F8343FFFF7A7FEFFF7DBF8FFF78C
:1048200083FE284603B030BD71C20F4170C20F41F4
:1048300000E400E0544B0020584B002054000020BE
:10484000EFF305830F2B0FD9114A9B5CDBB2114AA2
:1048500012789A4208D94FF0500383F31188BFF3BE
:104860006F8FBFF34F8FFEE74FF0E023D3F80C3D7F
:1048700003F4E063084A1268934208D94FF05003EA
:1048800083F31188BFF36F8FBFF34F8FFEE770473D
:10489000F0E300E0544B0020584B0020DFF834D008
:1048A000FCF748FA0C480D490D4A002302E0D458A1
:1048B000C4500433C4188C42F9D30A4A0A4C00236A
:1048C00001E013600432A242FBD300F017F8FBF7BB
:1048D000A9FE70470000022000000020BC0000205C
:1048E000E45A0008BC0000206C4B0020FEE70000EA
:1048F000014B1868704700BF5800002070B50D4D7F
:104900000D4C641BA4100026A64209D10B4D0C4C83
:1049100001F032F8641BA4100026A64205D170BD38
:1049200055F8043B98470136EEE755F8043B9847A5
:104930000136F2E7DC5A0008DC5A0008DC5A0008AD
:10494000E05A00080A44914200F1FF3300D1704759
:1049500010B511F8014B03F8014F9142F9D110BD88
:1049600002440346934200D1704703F8011BF9E764
:104970000FB40A4B13B51C6824B1A36913B92046C0
:1049800000F05EFA05AB049AA1680193204600F09E
:1049900067FC02B0BDE8104004B07047580000202A
:1049A00070B50E46054618B183690BB900F048FA98
:1049B000AB69AC6813B9284600F042FA2C4B9C4214
:1049C00020D16C68636EDB0705D4A389980502D4F7
:1049D000A06D00F0D3FAA38919071DD52369DBB1B7
:1049E000013EA36816F8011F013BA36039BB002BF1
:1049F00038DA22460A21284600F048F8013011D062
:104A00000A2511E01B4B9C4201D1AC68DAE71A4B36
:104A10009C4208BFEC68D5E72146284600F088F89C
:104A20000028DDD04FF0FF35636EDA0705D4A38987
:104A30009B0502D4A06D00F0A2FA284670BD002BA1
:104A400004DAA2699A4206DC0A2904D023685A1CB7
:104A500022601970C5E72246284600F017F8013099
:104A6000BFD1DFE723680A255A1C22601D70DBE7EF
:104A7000605A0008805A0008405A0008024B01465C
:104A80001868FFF78DBF00BF58000020F8B50E462C
:104A90001446054618B183690BB900F0D1F9214BD2
:104AA0009C422BD16C68A369A360A3891A072FD5F8
:104AB00023696BB323692068C01A6369F6B2834225
:104AC000374604DC2146284600F026F930BBA368AF
:104AD000013BA36023685A1C22601E706369013089
:104AE000834204D0A389DB0706D50A2E04D12146D0
:104AF000284600F011F988B93846F8BD0A4B9C42A7
:104B000001D1AC68CFE7094B9C4208BFEC68CAE70B
:104B10002146284600F00CF80028CBD04FF0FF3794
:104B2000EAE700BF605A0008805A0008405A0008AF
:104B3000324B70B51D6806460C4625B1AB6913B9FA
:104B4000284600F07DF92E4B9C420FD16C68A3895A
:104B5000B4F90C2019072CD4DD0611D409233360D5
:104B600042F04003A3814FF0FF303EE0254B9C42D2
:104B700001D1AC68EBE7244B9C4208BFEC68E6E748
:104B8000580712D5616B41B104F14403994202D038
:104B9000304600F05BFA00236363A38923F024030B
:104BA000A3810023636023692360A38943F0080382
:104BB000A38123694BB9A38903F42073B3F5007F64
:104BC00003D02146304600F001FAA089B4F90C2048
:104BD00010F001030AD00023A36063695B42A36164
:104BE000236943B910F08000BAD170BD810758BF66
:104BF0006369A360F4E70020F7E700BF58000020D6
:104C0000605A0008805A0008405A00088A892DE935
:104C1000F041054610070C4658D44B68002B05DCC4
:104C20000B6C002B02DC0020BDE8F081E66A002E50
:104C3000F9D0002312F480522F682B6032D0606DBF
:104C4000A3895A0705D56368C01A636B0BB1236C3F
:104C5000C01A00230246E66A216A2846B047431C70
:104C6000A38906D129681D292CD82A4ACA40D6070B
:104C700028D500226260D9042269226004D5421C32
:104C800001D12B6803B96065616B2F600029CAD020
:104C900004F14403994202D0284600F0D7F90020DD
:104CA0006063C1E7216A01232846B047411CC7D190
:104CB0002B68002BC4D01D2B01D0162B01D12F60E7
:104CC000B1E7A38943F04003A381ADE70F69002F4B
:104CD000A9D093070E6808BF4B690F6018BF002367
:104CE000A6EB07088B60B8F1000F9CDD216AA66A6D
:104CF00043463A462846B047002806DCA38943F0DD
:104D00004003A3814FF0FF308EE70744A8EB000873
:104D1000E9E700BF0100402038B50B6905460C46A5
:104D200013B90025284638BD18B183690BB900F0C6
:104D300087F8144B9C421BD16C68B4F90C30002BE3
:104D4000EFD0626ED00704D4990502D4A06D00F0B4
:104D500015F928462146FFF759FF636EDA07054625
:104D6000E0D4A3899B05DDD4A06D00F008F9D9E754
:104D7000054B9C4201D1AC68DFE7044B9C4208BF65
:104D8000EC68DAE7605A0008805A0008405A0008C8
:104D9000002310B50446C0E90033C0E90433836042
:104DA00081814366C2818361194608225C30FFF726
:104DB000D7FD054B6362054BA362054BE362054BD0
:104DC0002462236310BD00BF095800082B58000857
:104DD0006358000887580008014900F0AFB800BFC9
:104DE000194D000870B568224D1E55430E4605F159
:104DF000740100F097F9044640B10021C0E90016A3
:104E00000C30A06005F16802FFF7AAFD204670BDD6
:104E1000014800F0B3B800BF5D4B0020014800F02E
:104E2000AEB800BF5D4B0020014800F0A7B800BF3E
:104E30005E4B0020014800F0A2B800BF5E4B00208E
:104E400010B50446FFF7F0FFA3691BB1BDE81040A1
:104E5000FFF7F0BFC4E912332365134B134A1B68F5
:104E6000A262A34204BF0123A361204600F020F800
:104E70006060204600F01CF8A060204600F018F8A2
:104E80000022E06004216068FFF782FFA068012231
:104E90000921FFF77DFFE06802221221FFF778FF6A
:104EA0000123A361D2E700BF3C5A0008D94D000896
:104EB000F8B50746FFF7ACFF1E4B1E68B36913B980
:104EC0003046FFF7BDFF4836D6E90134013B03D534
:104ED00033680BB33668F7E7B4F90C50D5B9164B05
:104EE000E36004F15800656600F047F8FFF796FFAD
:104EF000C4E90155C4E904552560A5610822294685
:104F000004F15C00FFF72CFDC4E90D55C4E912550E
:104F10002046F8BD6834D9E704213846FFF762FF20
:104F2000044630600028D5D1FFF778FF0C233B60A2
:104F3000EEE700BF3C5A00080100FFFF2DE9F843EF
:104F40000646884600F148040027D4E90195B9F1E6
:104F5000010905D52468002CF7D13846BDE8F8834F
:104F6000AB89012B07D9B5F90E30013303D029469F
:104F70003046C04707436835E9E7704770477047D8
:104F800070B50E46B1F90E10002996B014461D46B4
:104F900008DAB6F90C3000222A601A0610D44FF451
:104FA00080630EE06A4600F095FC0028F1DB019A70
:104FB00002F47042A2F500535A425A412A60EEE7C9
:104FC00040230020236016B070BD00008B8973B5AC
:104FD0009D0706460C4607D504F14703236023616D
:104FE0000123636102B070BD01AB6A46FFF7C8FFE1
:104FF00000990546304600F095F848B9B4F90C30F0
:105000009A05EFD423F0030343F00203A381E3E7FF
:105010000D4BB362A389206043F08003A381009B02
:105020006361019B20615BB1B4F90E10304600F062
:1050300063FC28B1A38923F0030343F00103A38198
:10504000A0890543A581CDE7D94D000837B50029D2
:1050500044D051F8043C0190002BA1F10404B8BFE6
:10506000E41800F06BFC1E4A0198136833B96360C2
:10507000146003B0BDE8304000F066BCA34208D91C
:10508000256861198B4201BF19685B684919216065
:10509000EDE71A465B680BB1A342FAD911685518BF
:1050A000A5420BD1246821445418A3421160E0D1D9
:1050B0001C685B68536021441160DAE702D90C2355
:1050C0000360D6E7256861198B4204BF19685B68E5
:1050D000636004BF491921605460CAE703B030BD62
:1050E000604B002070B50E4E0C463168054611B974
:1050F00000F07AFB30602146284600F075FB431C27
:105100000AD0C41C24F00304A04207D0211A284668
:1051100000F06AFB013001D14FF0FF34204670BD32
:10512000644B00202DE9F041CD1C25F00305083526
:105130000C2D38BF0C25002D074601DBA94205D9EF
:105140000C233B6000263046BDE8F0812E4E00F077
:10515000F5FB33681C4634BB29463846FFF7C2FFCF
:10516000431C04464DD134682646002E40D12368A6
:105170003146384604EB030800F036FB80453AD14F
:10518000216803356D1A25F0030508350C2D38BF4D
:105190000C2529463846FFF7A5FF01302BD02368A0
:1051A0002B4423600EE02268521B1ED40B2A16D912
:1051B0006119A342256018BF5960636808BF316058
:1051C00062514B60384604F10B0600F0BDFB26F03F
:1051D0000706231DF21AB6D09B1BA350B3E76268E3
:1051E000A3420CBF32605A60ECE723466468B2E722
:1051F00034467668B9E70C233B60384600F0A4FBE0
:10520000A1E72560DEE700BF604B00209368013B0B
:10521000002B10B4936008DA9469A34201DB0A29D9
:1052200003D15DF8044BFFF731BC1368581C1060C4
:10523000197008465DF8044B7047F8B506460F46EE
:105240001446D518AC4201D1002007E014F8011B28
:105250003A463046FFF7DAFF431CF3D1F8BD0000B1
:105260002DE9F04F0D469DB014469846064618B1FC
:1052700083690BB9FFF7E4FD894B9D421BD175682B
:105280006B6ED90705D4AB899A0502D4A86DFFF7D8
:1052900075FEAB891B0701D52B69EBB92946304652
:1052A000FFF746FCC0B16B6EDC070ED54FF0FF3048
:1052B0001DB0BDE8F08F7B4B9D4201D1B568DFE7A3
:1052C000794B9D4208BFF568DAE7AB899805EDD4C4
:1052D000A86DFFF754FEE9E70023099320238DF81A
:1052E0002930CDF80C803023DFF8C0818DF82A30CA
:1052F0004FF0010923469A4613F8012B0AB1252ADB
:10530000F9D1BAEB040B0BD05B4622462946304656
:10531000FFF793FF013000F0AA80099A5A440992DE
:105320009AF80030002B00F0A28000234FF0FF32EB
:10533000CDE905230AF1010A049307938DF8533050
:105340001A935446052214F8011B5848FAF740FFF7
:10535000049AD8B9D10644BF20238DF853301307DF
:1053600044BF2B238DF853309AF800302A2B15D0E8
:10537000079A544600204FF00A0C214611F8013BD1
:10538000303B092B4ED9B0B1079214E0A0EB0803D3
:1053900009FA03F313430493A246D2E7039B191DB2
:1053A0001B680391002BBBBF5B4242F002020793D4
:1053B0000793B8BF049223782E2B0CD163782A2B45
:1053C00035D1039B1A1D1B680392002BB8BF4FF009
:1053D000FF3302340593DFF8E4A02178032250461E
:1053E000FAF7F6FE40B14023A0EB0A0003FA00F002
:1053F000049B03430134049314F8011B2C488DF8DB
:1054000028100622FAF7E4FE00283FD0294B1BBBE8
:10541000039B073323F0070308330393099B3B44A3
:10542000099367E70CFB02320C460120A5E7002335
:105430000134059319464FF00A0C204610F8012B51
:10544000303A092A03D9002BC5D00591C3E70CFBDC
:10545000012104460123F0E703AB00932A46164BD3
:1054600004A93046AFF300800746781CD6D16B6E96
:10547000D90705D4AB899A0502D4A86DFFF77FFD43
:10548000AB895B063FF512AF099811E703AB0093B8
:105490002A46094B04A9304600F080F8E4E700BF33
:1054A000605A0008805A0008405A0008A05A0008B4
:1054B000AA5A0008000000003B520008A65A000843
:1054C0002DE9F047164699468A680B69DDF8208079
:1054D0009342B8BF1346336091F8432007460C4609
:1054E0000AB1013333602368990642BF336802333F
:1054F0003360256815F0060506D104F1190AE36842
:1055000032689B1AAB4226DC94F84320131E2268B3
:1055100018BF012392062BD404F1430249463846B2
:10552000C04701301ED02368E568326803F00603E7
:10553000042B08BFAD1AA36822690CBF25EAE575E4
:1055400000259342C4BF9B1AED1800261A34B542B9
:105550001AD1002008E00123524649463846C04788
:10556000013003D14FF0FF30BDE8F0870135C6E7C9
:10557000E1185A1C302081F84300224494F8451069
:1055800082F843100233C7E70123224649463846D2
:10559000C0470130E6D00136D9E700002DE9FF47CA
:1055A0000F7E0C9D782F914680460C469A4601F15D
:1055B000430207D8622F0AD8002F00F0D880582F56
:1055C00000F0A38004F1420584F842703AE0A7F1AC
:1055D0006303152BF6D801A151F823F035560008C6
:1055E00049560008C5550008C5550008C5550008AE
:1055F000C555000849560008C5550008C55500089E
:10560000C5550008C55500085557000879560008CB
:1056100037570008C5550008C555000877570008DA
:10562000C555000879560008C5550008C55500083D
:105630003F5700082B681A1D1B682A6004F14205B9
:1056400084F842300123A3E020682968060601F1AE
:1056500004030AD50E682B60002E03DA2D23764250
:1056600084F843305E480A2319E00E682B6010F07E
:10567000400F18BF36B2EFE72B682068191D29606C
:10568000010601D51E6802E04606FBD51E88544877
:105690006F2F0CBF08230A23002184F8431065688C
:1056A000A560002DA2BF216821F0040121600EB980
:1056B000002D4DD01546B6FBF3F103FB1167C75D16
:1056C00005F8017D3746BB420E46F4D9082B0BD1B5
:1056D0002368DE0708D5236961689942DEBF30235D
:1056E00005F8013C05F1FF35521B2261CDF800A001
:1056F0004B4603AA21464046FFF7E2FE01304CD15B
:105700004FF0FF3004B0BDE8F087354881F84570B0
:105710002968236851F8046B29601D0614D5DF073A
:1057200044BF43F0200323601EB9236823F0200305
:1057300023601023B0E7236843F02003236078231D
:10574000284884F84530E3E7590648BFB6B2E6E793
:105750001546BBE72B6826686169181D2860350669
:105760001B6801D5196002E07006FBD51980002383
:1057700023611546BAE72B681A1D2A601D68626806
:1057800000212846FAF724FD08B1401B60606368D9
:105790002361002384F84330A8E723692A46494659
:1057A0004046D0470130ABD023689B0713D4E06854
:1057B000039B9842B8BF1846A4E7012332464946E6
:1057C0004046D04701309BD00135E36803995B1A0E
:1057D000AB42F2DCEBE7002504F11906F5E700BF68
:1057E000B15A0008C25A000838B5064D00230446D5
:1057F00008462B60FBF75EFA431C02D12B6803B10D
:10580000236038BD684B002010B50C46B1F90E106E
:1058100000F0A0F80028ABBF636DA3891B1823F428
:105820008053ACBF6365A38110BD2DE9F0411F46D5
:105830008B89DB0505460C46164605D5B1F90E10D9
:105840000223002200F068F8A389B4F90E1023F4B3
:105850008053A38132463B462846BDE8F04100F024
:1058600017B810B50C46B1F90E1000F055F8431CEE
:10587000A38915BF606523F4805343F48053A3814B
:1058800018BFA38110BDB1F90E1000F013B80000CD
:1058900038B5074D04460846114600222A601A46CC
:1058A000FAF7E2FF431C02D12B6803B1236038BD35
:1058B000684B002038B5064D0023044608462B608F
:1058C000FBF72CFA431C02D12B6803B1236038BDCF
:1058D000684B002038B5074D0023044608461146A2
:1058E0002B60FBF71EFA431C02D12B6803B1236027
:1058F00038BD00BF684B002038B5064D0023044674
:1059000008462B60FBF712FA431C02D12B6803B147
:10591000236038BD684B002038B5074D0446084663
:10592000114600222A601A46FBF702FA431C02D1F4
:105930002B6803B1236038BD684B00200148FFF796
:105940001DBB00BF5C4B00200148FFF718BB00BF28
:105950005C4B002038B5074D04460846114600222E
:105960002A601A46FBF7CAF9431C02D12B6803B11F
:10597000236038BD684B0020F8B500BFF8BC08BCF8
:105980009E467047F8B500BFF8BC08BC9E467047FD
:105990007461736B310000007461736B320000003E
:1059A0007461736B330000007461736B3220696E35
:1059B0006974206F6B0D0000756172743120696E1F
:1059C0006974206F6B0D0A00636E743A20256420A1
:1059D0002C20646174613A2025630D0A00000000E8
:1059E0006B6579300D0000006B6579310D000000AA
:1059F0006B6579320D00000073746172745F7461BD
:105A0000736B0000000000000000000001020304AE
:105A10000607080900000000010203040006101632
:105A20000006101649444C4500000000546D7251A8
:105A300000000000546D7220537663005C0000206B
:105A40000000000000000000000000000000000056
:105A50000000000000000000000000000000000046
:105A60000000000000000000000000000000000036
:105A70000000000000000000000000000000000026
:105A80000000000000000000000000000000000016
:105A90000000000000000000000000000000000006
:105AA000232D302B2000686C4C0065666745464707
:105AB000003031323334353637383941424344458A
:105AC00046003031323334353637383961626364F9
:045AD0006566000007
:085AD400CCA7FF7F01000000D8
:045ADC00B501000808
